{
  "_format": "hh-sol-artifact-1",
  "contractName": "Ballotadv",
  "sourceName": "contracts/Ballotadv.sol",
  "abi": [
    {
      "inputs": [
        {
          "internalType": "bytes32[]",
          "name": "proposalNames",
          "type": "bytes32[]"
        }
      ],
      "stateMutability": "nonpayable",
      "type": "constructor"
    },
    {
      "inputs": [],
      "name": "chairperson",
      "outputs": [
        {
          "internalType": "address",
          "name": "",
          "type": "address"
        }
      ],
      "stateMutability": "view",
      "type": "function"
    },
    {
      "inputs": [
        {
          "internalType": "address",
          "name": "to",
          "type": "address"
        }
      ],
      "name": "delegateVote",
      "outputs": [],
      "stateMutability": "nonpayable",
      "type": "function"
    },
    {
      "inputs": [
        {
          "internalType": "address",
          "name": "voter",
          "type": "address"
        }
      ],
      "name": "giveRightsToVoters",
      "outputs": [],
      "stateMutability": "nonpayable",
      "type": "function"
    },
    {
      "inputs": [
        {
          "internalType": "uint256",
          "name": "",
          "type": "uint256"
        }
      ],
      "name": "proposals",
      "outputs": [
        {
          "internalType": "bytes32",
          "name": "shortName",
          "type": "bytes32"
        },
        {
          "internalType": "uint256",
          "name": "voteCount",
          "type": "uint256"
        }
      ],
      "stateMutability": "view",
      "type": "function"
    },
    {
      "inputs": [
        {
          "internalType": "uint256",
          "name": "proposal",
          "type": "uint256"
        }
      ],
      "name": "vote",
      "outputs": [],
      "stateMutability": "nonpayable",
      "type": "function"
    },
    {
      "inputs": [
        {
          "internalType": "address",
          "name": "",
          "type": "address"
        }
      ],
      "name": "voters",
      "outputs": [
        {
          "internalType": "bool",
          "name": "voted",
          "type": "bool"
        },
        {
          "internalType": "uint256",
          "name": "vote",
          "type": "uint256"
        }
      ],
      "stateMutability": "view",
      "type": "function"
    },
    {
      "inputs": [],
      "name": "winnerName",
      "outputs": [
        {
          "internalType": "bytes32",
          "name": "winnerName_",
          "type": "bytes32"
        }
      ],
      "stateMutability": "view",
      "type": "function"
    },
    {
      "inputs": [],
      "name": "winningProposal",
      "outputs": [],
      "stateMutability": "view",
      "type": "function"
    }
  ],
  "bytecode": "0x608060405234801561001057600080fd5b5060405161062e38038061062e833981810160405281019061003291906100e3565b50610207565b600061004b61004684610149565b610124565b9050808382526020820190508285602086028201111561006a57600080fd5b60005b8581101561009a578161008088826100ce565b84526020840193506020830192505060018101905061006d565b5050509392505050565b600082601f8301126100b557600080fd5b81516100c5848260208601610038565b91505092915050565b6000815190506100dd816101f0565b92915050565b6000602082840312156100f557600080fd5b600082015167ffffffffffffffff81111561010f57600080fd5b61011b848285016100a4565b91505092915050565b600061012e61013f565b905061013a828261017f565b919050565b6000604051905090565b600067ffffffffffffffff821115610164576101636101b0565b5b602082029050602081019050919050565b6000819050919050565b610188826101df565b810181811067ffffffffffffffff821117156101a7576101a66101b0565b5b80604052505050565b7f4e487b7100000000000000000000000000000000000000000000000000000000600052604160045260246000fd5b6000601f19601f8301169050919050565b6101f981610175565b811461020457600080fd5b50565b610418806102166000396000f3fe608060405234801561001057600080fd5b50600436106100885760003560e01c8063609ff1bd1161005b578063609ff1bd14610114578063a3ec138d1461011e578063b31e1d4d1461014f578063e2ba53f01461016b57610088565b80630121b93f1461008d578063013cf08b146100a95780632e4176cf146100da578063552ab16d146100f8575b600080fd5b6100a760048036038101906100a29190610275565b610189565b005b6100c360048036038101906100be9190610275565b61018c565b6040516100d1929190610339565b60405180910390f35b6100e26101c0565b6040516100ef91906102da565b60405180910390f35b610112600480360381019061010d919061024c565b6101e4565b005b61011c6101e7565b005b6101386004803603810190610133919061024c565b6101e9565b6040516101469291906102f5565b60405180910390f35b6101696004803603810190610164919061024c565b61021a565b005b61017361021d565b604051610180919061031e565b60405180910390f35b50565b6002818154811061019c57600080fd5b90600052602060002090600202016000915090508060000154908060010154905082565b60008054906101000a900473ffffffffffffffffffffffffffffffffffffffff1681565b50565b565b60016020528060005260406000206000915090508060000160009054906101000a900460ff16908060010154905082565b50565b600090565b600081359050610231816103b4565b92915050565b600081359050610246816103cb565b92915050565b60006020828403121561025e57600080fd5b600061026c84828501610222565b91505092915050565b60006020828403121561028757600080fd5b600061029584828501610237565b91505092915050565b6102a781610362565b82525050565b6102b681610374565b82525050565b6102c581610380565b82525050565b6102d4816103aa565b82525050565b60006020820190506102ef600083018461029e565b92915050565b600060408201905061030a60008301856102ad565b61031760208301846102cb565b9392505050565b600060208201905061033360008301846102bc565b92915050565b600060408201905061034e60008301856102bc565b61035b60208301846102cb565b9392505050565b600061036d8261038a565b9050919050565b60008115159050919050565b6000819050919050565b600073ffffffffffffffffffffffffffffffffffffffff82169050919050565b6000819050919050565b6103bd81610362565b81146103c857600080fd5b50565b6103d4816103aa565b81146103df57600080fd5b5056fea2646970667358221220dbd167f1470cabf949493ce590ed30b05cb11760e219e3eedf002a528c0be50c64736f6c63430008040033",
  "linkReferences": {},
  "deployedLinkReferences": {}
}