{
  "_format": "hh-sol-artifact-1",
  "contractName": "Ballot",
  "sourceName": "contracts/Ballot.sol",
  "abi": [
    {
      "inputs": [
        {
          "internalType": "string[]",
          "name": "proposalCandidates",
          "type": "string[]"
        }
      ],
      "stateMutability": "nonpayable",
      "type": "constructor"
    },
    {
      "anonymous": false,
      "inputs": [
        {
          "indexed": false,
          "internalType": "uint256",
          "name": "proposal",
          "type": "uint256"
        },
        {
          "indexed": false,
          "internalType": "uint256",
          "name": "votes",
          "type": "uint256"
        }
      ],
      "name": "liveResults",
      "type": "event"
    },
    {
      "inputs": [],
      "name": "getElectionResult",
      "outputs": [
        {
          "internalType": "string",
          "name": "winnerName_",
          "type": "string"
        }
      ],
      "stateMutability": "view",
      "type": "function"
    },
    {
      "inputs": [
        {
          "internalType": "uint256",
          "name": "",
          "type": "uint256"
        }
      ],
      "name": "proposals",
      "outputs": [
        {
          "internalType": "string",
          "name": "name",
          "type": "string"
        },
        {
          "internalType": "uint256",
          "name": "voteCount",
          "type": "uint256"
        }
      ],
      "stateMutability": "view",
      "type": "function"
    },
    {
      "inputs": [
        {
          "internalType": "uint256",
          "name": "proposal",
          "type": "uint256"
        }
      ],
      "name": "vote",
      "outputs": [],
      "stateMutability": "nonpayable",
      "type": "function"
    },
    {
      "inputs": [
        {
          "internalType": "address",
          "name": "",
          "type": "address"
        }
      ],
      "name": "voters",
      "outputs": [
        {
          "internalType": "bool",
          "name": "voted",
          "type": "bool"
        },
        {
          "internalType": "uint256",
          "name": "vote",
          "type": "uint256"
        },
        {
          "internalType": "uint256",
          "name": "weight",
          "type": "uint256"
        }
      ],
      "stateMutability": "view",
      "type": "function"
    },
    {
      "inputs": [
        {
          "internalType": "uint256",
          "name": "",
          "type": "uint256"
        }
      ],
      "name": "winners",
      "outputs": [
        {
          "internalType": "bool",
          "name": "",
          "type": "bool"
        }
      ],
      "stateMutability": "view",
      "type": "function"
    },
    {
      "inputs": [],
      "name": "winningProposal",
      "outputs": [
        {
          "internalType": "uint256",
          "name": "winningProposal_",
          "type": "uint256"
        }
      ],
      "stateMutability": "view",
      "type": "function"
    }
  ],
  "bytecode": "0x60806040523480156200001157600080fd5b5060405162000ede38038062000ede8339818101604052810190620000379190620002ee565b60005b81518110156200010757600260405180604001604052808484815181106200008b577f4e487b7100000000000000000000000000000000000000000000000000000000600052603260045260246000fd5b60200260200101518152602001600081525090806001815401808255809150506001900390600052602060002090600202016000909190919091506000820151816000019080519060200190620000e49291906200010f565b506020820151816001015550508080620000fe906200046d565b9150506200003a565b505062000559565b8280546200011d9062000401565b90600052602060002090601f0160209004810192826200014157600085556200018d565b82601f106200015c57805160ff19168380011785556200018d565b828001600101855582156200018d579182015b828111156200018c5782518255916020019190600101906200016f565b5b5090506200019c9190620001a0565b5090565b5b80821115620001bb576000816000905550600101620001a1565b5090565b6000620001d6620001d0846200035c565b62000333565b90508083825260208201905082856020860282011115620001f657600080fd5b60005b858110156200024557815167ffffffffffffffff8111156200021a57600080fd5b808601620002298982620002c1565b85526020850194506020840193505050600181019050620001f9565b5050509392505050565b60006200026662000260846200038b565b62000333565b9050828152602081018484840111156200027f57600080fd5b6200028c848285620003cb565b509392505050565b600082601f830112620002a657600080fd5b8151620002b8848260208601620001bf565b91505092915050565b600082601f830112620002d357600080fd5b8151620002e58482602086016200024f565b91505092915050565b6000602082840312156200030157600080fd5b600082015167ffffffffffffffff8111156200031c57600080fd5b6200032a8482850162000294565b91505092915050565b60006200033f62000352565b90506200034d828262000437565b919050565b6000604051905090565b600067ffffffffffffffff8211156200037a576200037962000519565b5b602082029050602081019050919050565b600067ffffffffffffffff821115620003a957620003a862000519565b5b620003b48262000548565b9050602081019050919050565b6000819050919050565b60005b83811015620003eb578082015181840152602081019050620003ce565b83811115620003fb576000848401525b50505050565b600060028204905060018216806200041a57607f821691505b60208210811415620004315762000430620004ea565b5b50919050565b620004428262000548565b810181811067ffffffffffffffff8211171562000464576200046362000519565b5b80604052505050565b60006200047a82620003c1565b91507fffffffffffffffffffffffffffffffffffffffffffffffffffffffffffffffff821415620004b057620004af620004bb565b5b600182019050919050565b7f4e487b7100000000000000000000000000000000000000000000000000000000600052601160045260246000fd5b7f4e487b7100000000000000000000000000000000000000000000000000000000600052602260045260246000fd5b7f4e487b7100000000000000000000000000000000000000000000000000000000600052604160045260246000fd5b6000601f19601f8301169050919050565b61097580620005696000396000f3fe608060405234801561001057600080fd5b50600436106100625760003560e01c80630121b93f14610067578063013cf08b14610083578063609ff1bd146100b4578063a2fb1175146100d2578063a3ec138d14610102578063ca3eb44314610134575b600080fd5b610081600480360381019061007c919061058f565b610152565b005b61009d6004803603810190610098919061058f565b610273565b6040516100ab9291906106a6565b60405180910390f35b6100bc61032f565b6040516100c991906106f6565b60405180910390f35b6100ec60048036038101906100e7919061058f565b610403565b6040516100f99190610632565b60405180910390f35b61011c60048036038101906101179190610566565b610423565b60405161012b9392919061064d565b60405180910390f35b61013c61045a565b6040516101499190610684565b60405180910390f35b60008060003373ffffffffffffffffffffffffffffffffffffffff1673ffffffffffffffffffffffffffffffffffffffff16815260200190815260200160002090508060000160009054906101000a900460ff16156101e6576040517f08c379a00000000000000000000000000000000000000000000000000000000081526004016101dd906106d6565b60405180910390fd5b60018160000160006101000a81548160ff021916908315150217905550818160010181905550600160028381548110610248577f4e487b7100000000000000000000000000000000000000000000000000000000600052603260045260246000fd5b90600052602060002090600202016001016000828254610268919061072d565b925050819055505050565b6002818154811061028357600080fd5b90600052602060002090600202016000915090508060000180546102a6906107fe565b80601f01602080910402602001604051908101604052809291908181526020018280546102d2906107fe565b801561031f5780601f106102f45761010080835404028352916020019161031f565b820191906000526020600020905b81548152906001019060200180831161030257829003601f168201915b5050505050908060010154905082565b6000806000905060005b6002805490508110156103fe578160028281548110610381577f4e487b7100000000000000000000000000000000000000000000000000000000600052603260045260246000fd5b90600052602060002090600202016001015411156103eb57600281815481106103d3577f4e487b7100000000000000000000000000000000000000000000000000000000600052603260045260246000fd5b90600052602060002090600202016001015491508092505b80806103f690610830565b915050610339565b505090565b60016020528060005260406000206000915054906101000a900460ff1681565b60006020528060005260406000206000915090508060000160009054906101000a900460ff16908060010154908060020154905083565b6060600261046661032f565b8154811061049d577f4e487b7100000000000000000000000000000000000000000000000000000000600052603260045260246000fd5b906000526020600020906002020160000180546104b9906107fe565b80601f01602080910402602001604051908101604052809291908181526020018280546104e5906107fe565b80156105325780601f1061050757610100808354040283529160200191610532565b820191906000526020600020905b81548152906001019060200180831161051557829003601f168201915b5050505050905090565b60008135905061054b81610911565b92915050565b60008135905061056081610928565b92915050565b60006020828403121561057857600080fd5b60006105868482850161053c565b91505092915050565b6000602082840312156105a157600080fd5b60006105af84828501610551565b91505092915050565b6105c181610795565b82525050565b60006105d282610711565b6105dc818561071c565b93506105ec8185602086016107cb565b6105f5816108d7565b840191505092915050565b600061060d600d8361071c565b9150610618826108e8565b602082019050919050565b61062c816107c1565b82525050565b600060208201905061064760008301846105b8565b92915050565b600060608201905061066260008301866105b8565b61066f6020830185610623565b61067c6040830184610623565b949350505050565b6000602082019050818103600083015261069e81846105c7565b905092915050565b600060408201905081810360008301526106c081856105c7565b90506106cf6020830184610623565b9392505050565b600060208201905081810360008301526106ef81610600565b9050919050565b600060208201905061070b6000830184610623565b92915050565b600081519050919050565b600082825260208201905092915050565b6000610738826107c1565b9150610743836107c1565b9250827fffffffffffffffffffffffffffffffffffffffffffffffffffffffffffffffff0382111561077857610777610879565b5b828201905092915050565b600061078e826107a1565b9050919050565b60008115159050919050565b600073ffffffffffffffffffffffffffffffffffffffff82169050919050565b6000819050919050565b60005b838110156107e95780820151818401526020810190506107ce565b838111156107f8576000848401525b50505050565b6000600282049050600182168061081657607f821691505b6020821081141561082a576108296108a8565b5b50919050565b600061083b826107c1565b91507fffffffffffffffffffffffffffffffffffffffffffffffffffffffffffffffff82141561086e5761086d610879565b5b600182019050919050565b7f4e487b7100000000000000000000000000000000000000000000000000000000600052601160045260246000fd5b7f4e487b7100000000000000000000000000000000000000000000000000000000600052602260045260246000fd5b6000601f19601f8301169050919050565b7f416c726561647920766f74656400000000000000000000000000000000000000600082015250565b61091a81610783565b811461092557600080fd5b50565b610931816107c1565b811461093c57600080fd5b5056fea26469706673582212200ca0c0e880e1ae79e17924ab8ed809b484e3291ba50be9e1c2790c7c5c431c0464736f6c63430008040033",
  "linkReferences": {},
  "deployedLinkReferences": {}
}